{
  "_format": "hh-sol-artifact-1",
  "contractName": "RandomIpfsNft",
  "sourceName": "contracts/RandomIpfs.sol",
  "abi": [
    {
      "inputs": [
        {
          "internalType": "address",
          "name": "vrfCoordinatorV2",
          "type": "address"
        },
        {
          "internalType": "uint64",
          "name": "subscriptionId",
          "type": "uint64"
        },
        {
          "internalType": "bytes32",
          "name": "gasLane",
          "type": "bytes32"
        },
        {
          "internalType": "uint32",
          "name": "callbackGasLimit",
          "type": "uint32"
        },
        {
          "internalType": "string[3]",
          "name": "dogTokenUris",
          "type": "string[3]"
        },
        {
          "internalType": "uint256",
          "name": "mintFee",
          "type": "uint256"
        }
      ],
      "stateMutability": "nonpayable",
      "type": "constructor"
    },
    {
      "inputs": [
        {
          "internalType": "address",
          "name": "have",
          "type": "address"
        },
        {
          "internalType": "address",
          "name": "want",
          "type": "address"
        }
      ],
      "name": "OnlyCoordinatorCanFulfill",
      "type": "error"
    },
    {
      "inputs": [],
      "name": "RandomIpfsNft__NeedMoreETHSent",
      "type": "error"
    },
    {
      "inputs": [],
      "name": "RandomIpfsNft__RangeOutOfBounds",
      "type": "error"
    },
    {
      "inputs": [],
      "name": "RandomIpfsNft__TransferFailed",
      "type": "error"
    },
    {
      "anonymous": false,
      "inputs": [
        {
          "indexed": true,
          "internalType": "address",
          "name": "owner",
          "type": "address"
        },
        {
          "indexed": true,
          "internalType": "address",
          "name": "approved",
          "type": "address"
        },
        {
          "indexed": true,
          "internalType": "uint256",
          "name": "tokenId",
          "type": "uint256"
        }
      ],
      "name": "Approval",
      "type": "event"
    },
    {
      "anonymous": false,
      "inputs": [
        {
          "indexed": true,
          "internalType": "address",
          "name": "owner",
          "type": "address"
        },
        {
          "indexed": true,
          "internalType": "address",
          "name": "operator",
          "type": "address"
        },
        {
          "indexed": false,
          "internalType": "bool",
          "name": "approved",
          "type": "bool"
        }
      ],
      "name": "ApprovalForAll",
      "type": "event"
    },
    {
      "anonymous": false,
      "inputs": [
        {
          "indexed": false,
          "internalType": "enum RandomIpfsNft.Breed",
          "name": "dogBreed",
          "type": "uint8"
        },
        {
          "indexed": false,
          "internalType": "address",
          "name": "minter",
          "type": "address"
        }
      ],
      "name": "NftMinted",
      "type": "event"
    },
    {
      "anonymous": false,
      "inputs": [
        {
          "indexed": true,
          "internalType": "uint256",
          "name": "requestId",
          "type": "uint256"
        },
        {
          "indexed": false,
          "internalType": "address",
          "name": "requester",
          "type": "address"
        }
      ],
      "name": "NftRequested",
      "type": "event"
    },
    {
      "anonymous": false,
      "inputs": [
        {
          "indexed": true,
          "internalType": "address",
          "name": "previousOwner",
          "type": "address"
        },
        {
          "indexed": true,
          "internalType": "address",
          "name": "newOwner",
          "type": "address"
        }
      ],
      "name": "OwnershipTransferred",
      "type": "event"
    },
    {
      "anonymous": false,
      "inputs": [
        {
          "indexed": true,
          "internalType": "address",
          "name": "from",
          "type": "address"
        },
        {
          "indexed": true,
          "internalType": "address",
          "name": "to",
          "type": "address"
        },
        {
          "indexed": true,
          "internalType": "uint256",
          "name": "tokenId",
          "type": "uint256"
        }
      ],
      "name": "Transfer",
      "type": "event"
    },
    {
      "inputs": [
        {
          "internalType": "address",
          "name": "to",
          "type": "address"
        },
        {
          "internalType": "uint256",
          "name": "tokenId",
          "type": "uint256"
        }
      ],
      "name": "approve",
      "outputs": [],
      "stateMutability": "nonpayable",
      "type": "function"
    },
    {
      "inputs": [
        {
          "internalType": "address",
          "name": "owner",
          "type": "address"
        }
      ],
      "name": "balanceOf",
      "outputs": [
        {
          "internalType": "uint256",
          "name": "",
          "type": "uint256"
        }
      ],
      "stateMutability": "view",
      "type": "function"
    },
    {
      "inputs": [
        {
          "internalType": "uint256",
          "name": "tokenId",
          "type": "uint256"
        }
      ],
      "name": "getApproved",
      "outputs": [
        {
          "internalType": "address",
          "name": "",
          "type": "address"
        }
      ],
      "stateMutability": "view",
      "type": "function"
    },
    {
      "inputs": [
        {
          "internalType": "uint256",
          "name": "moddedRng",
          "type": "uint256"
        }
      ],
      "name": "getBreedFromModdedRng",
      "outputs": [
        {
          "internalType": "enum RandomIpfsNft.Breed",
          "name": "",
          "type": "uint8"
        }
      ],
      "stateMutability": "pure",
      "type": "function"
    },
    {
      "inputs": [],
      "name": "getChanceArray",
      "outputs": [
        {
          "internalType": "uint256[3]",
          "name": "",
          "type": "uint256[3]"
        }
      ],
      "stateMutability": "pure",
      "type": "function"
    },
    {
      "inputs": [
        {
          "internalType": "uint256",
          "name": "index",
          "type": "uint256"
        }
      ],
      "name": "getDogTokenUris",
      "outputs": [
        {
          "internalType": "string",
          "name": "",
          "type": "string"
        }
      ],
      "stateMutability": "view",
      "type": "function"
    },
    {
      "inputs": [],
      "name": "getMintFee",
      "outputs": [
        {
          "internalType": "uint256",
          "name": "",
          "type": "uint256"
        }
      ],
      "stateMutability": "view",
      "type": "function"
    },
    {
      "inputs": [],
      "name": "getTokenCounter",
      "outputs": [
        {
          "internalType": "uint256",
          "name": "",
          "type": "uint256"
        }
      ],
      "stateMutability": "view",
      "type": "function"
    },
    {
      "inputs": [
        {
          "internalType": "address",
          "name": "owner",
          "type": "address"
        },
        {
          "internalType": "address",
          "name": "operator",
          "type": "address"
        }
      ],
      "name": "isApprovedForAll",
      "outputs": [
        {
          "internalType": "bool",
          "name": "",
          "type": "bool"
        }
      ],
      "stateMutability": "view",
      "type": "function"
    },
    {
      "inputs": [],
      "name": "name",
      "outputs": [
        {
          "internalType": "string",
          "name": "",
          "type": "string"
        }
      ],
      "stateMutability": "view",
      "type": "function"
    },
    {
      "inputs": [],
      "name": "owner",
      "outputs": [
        {
          "internalType": "address",
          "name": "",
          "type": "address"
        }
      ],
      "stateMutability": "view",
      "type": "function"
    },
    {
      "inputs": [
        {
          "internalType": "uint256",
          "name": "tokenId",
          "type": "uint256"
        }
      ],
      "name": "ownerOf",
      "outputs": [
        {
          "internalType": "address",
          "name": "",
          "type": "address"
        }
      ],
      "stateMutability": "view",
      "type": "function"
    },
    {
      "inputs": [
        {
          "internalType": "uint256",
          "name": "requestId",
          "type": "uint256"
        },
        {
          "internalType": "uint256[]",
          "name": "randomWords",
          "type": "uint256[]"
        }
      ],
      "name": "rawFulfillRandomWords",
      "outputs": [],
      "stateMutability": "nonpayable",
      "type": "function"
    },
    {
      "inputs": [],
      "name": "renounceOwnership",
      "outputs": [],
      "stateMutability": "nonpayable",
      "type": "function"
    },
    {
      "inputs": [],
      "name": "requestNft",
      "outputs": [
        {
          "internalType": "uint256",
          "name": "requestId",
          "type": "uint256"
        }
      ],
      "stateMutability": "payable",
      "type": "function"
    },
    {
      "inputs": [
        {
          "internalType": "uint256",
          "name": "",
          "type": "uint256"
        }
      ],
      "name": "s_requestIdToSender",
      "outputs": [
        {
          "internalType": "address",
          "name": "",
          "type": "address"
        }
      ],
      "stateMutability": "view",
      "type": "function"
    },
    {
      "inputs": [],
      "name": "s_tokenCounter",
      "outputs": [
        {
          "internalType": "uint256",
          "name": "",
          "type": "uint256"
        }
      ],
      "stateMutability": "view",
      "type": "function"
    },
    {
      "inputs": [
        {
          "internalType": "address",
          "name": "from",
          "type": "address"
        },
        {
          "internalType": "address",
          "name": "to",
          "type": "address"
        },
        {
          "internalType": "uint256",
          "name": "tokenId",
          "type": "uint256"
        }
      ],
      "name": "safeTransferFrom",
      "outputs": [],
      "stateMutability": "nonpayable",
      "type": "function"
    },
    {
      "inputs": [
        {
          "internalType": "address",
          "name": "from",
          "type": "address"
        },
        {
          "internalType": "address",
          "name": "to",
          "type": "address"
        },
        {
          "internalType": "uint256",
          "name": "tokenId",
          "type": "uint256"
        },
        {
          "internalType": "bytes",
          "name": "data",
          "type": "bytes"
        }
      ],
      "name": "safeTransferFrom",
      "outputs": [],
      "stateMutability": "nonpayable",
      "type": "function"
    },
    {
      "inputs": [
        {
          "internalType": "address",
          "name": "operator",
          "type": "address"
        },
        {
          "internalType": "bool",
          "name": "approved",
          "type": "bool"
        }
      ],
      "name": "setApprovalForAll",
      "outputs": [],
      "stateMutability": "nonpayable",
      "type": "function"
    },
    {
      "inputs": [
        {
          "internalType": "bytes4",
          "name": "interfaceId",
          "type": "bytes4"
        }
      ],
      "name": "supportsInterface",
      "outputs": [
        {
          "internalType": "bool",
          "name": "",
          "type": "bool"
        }
      ],
      "stateMutability": "view",
      "type": "function"
    },
    {
      "inputs": [],
      "name": "symbol",
      "outputs": [
        {
          "internalType": "string",
          "name": "",
          "type": "string"
        }
      ],
      "stateMutability": "view",
      "type": "function"
    },
    {
      "inputs": [
        {
          "internalType": "uint256",
          "name": "tokenId",
          "type": "uint256"
        }
      ],
      "name": "tokenURI",
      "outputs": [
        {
          "internalType": "string",
          "name": "",
          "type": "string"
        }
      ],
      "stateMutability": "view",
      "type": "function"
    },
    {
      "inputs": [
        {
          "internalType": "address",
          "name": "from",
          "type": "address"
        },
        {
          "internalType": "address",
          "name": "to",
          "type": "address"
        },
        {
          "internalType": "uint256",
          "name": "tokenId",
          "type": "uint256"
        }
      ],
      "name": "transferFrom",
      "outputs": [],
      "stateMutability": "nonpayable",
      "type": "function"
    },
    {
      "inputs": [
        {
          "internalType": "address",
          "name": "newOwner",
          "type": "address"
        }
      ],
      "name": "transferOwnership",
      "outputs": [],
      "stateMutability": "nonpayable",
      "type": "function"
    },
    {
      "inputs": [],
      "name": "withdraw",
      "outputs": [],
      "stateMutability": "nonpayable",
      "type": "function"
    }
  ],
  "bytecode": "0x6101406040523480156200001257600080fd5b50604051620043023803806200430283398181016040528101906200003891906200080b565b6040518060400160405280600f81526020017f52616e646f6d2049504653204e465400000000000000000000000000000000008152506040518060400160405280600381526020017f52494e0000000000000000000000000000000000000000000000000000000000815250878073ffffffffffffffffffffffffffffffffffffffff1660808173ffffffffffffffffffffffffffffffffffffffff1660601b81525050508160009080519060200190620000f59291906200029e565b5080600190805190602001906200010e9291906200029e565b5050506200013162000125620001d060201b60201c565b620001d860201b60201c565b8573ffffffffffffffffffffffffffffffffffffffff1660a08173ffffffffffffffffffffffffffffffffffffffff1660601b815250508467ffffffffffffffff1660c08167ffffffffffffffff1660c01b815250508360e081815250508263ffffffff166101008163ffffffff1660e01b8152505081600a906003620001ba9291906200032f565b508061012081815250505050505050506200092b565b600033905090565b6000600760009054906101000a900473ffffffffffffffffffffffffffffffffffffffff16905081600760006101000a81548173ffffffffffffffffffffffffffffffffffffffff021916908373ffffffffffffffffffffffffffffffffffffffff1602179055508173ffffffffffffffffffffffffffffffffffffffff168173ffffffffffffffffffffffffffffffffffffffff167f8be0079c531659141344cd1fd0a4f28419497f9722a3daafe3b4186f6b6457e060405160405180910390a35050565b828054620002ac90620008f5565b90600052602060002090601f016020900481019282620002d057600085556200031c565b82601f10620002eb57805160ff19168380011785556200031c565b828001600101855582156200031c579182015b828111156200031b578251825591602001919060010190620002fe565b5b5090506200032b919062000396565b5090565b82805482825590600052602060002090810192821562000383579160200282015b8281111562000382578251829080519060200190620003719291906200029e565b509160200191906001019062000350565b5b509050620003929190620003b5565b5090565b5b80821115620003b157600081600090555060010162000397565b5090565b5b80821115620003d95760008181620003cf9190620003dd565b50600101620003b6565b5090565b508054620003eb90620008f5565b6000825580601f10620003ff575062000420565b601f0160209004906000526020600020908101906200041f919062000396565b5b50565b6000604051905090565b600080fd5b600080fd5b600073ffffffffffffffffffffffffffffffffffffffff82169050919050565b6000620004648262000437565b9050919050565b620004768162000457565b81146200048257600080fd5b50565b60008151905062000496816200046b565b92915050565b600067ffffffffffffffff82169050919050565b620004bb816200049c565b8114620004c757600080fd5b50565b600081519050620004db81620004b0565b92915050565b6000819050919050565b620004f681620004e1565b81146200050257600080fd5b50565b6000815190506200051681620004eb565b92915050565b600063ffffffff82169050919050565b62000537816200051c565b81146200054357600080fd5b50565b60008151905062000557816200052c565b92915050565b600080fd5b6000601f19601f8301169050919050565b7f4e487b7100000000000000000000000000000000000000000000000000000000600052604160045260246000fd5b620005ad8262000562565b810181811067ffffffffffffffff82111715620005cf57620005ce62000573565b5b80604052505050565b6000620005e462000423565b9050620005f28282620005a2565b919050565b600067ffffffffffffffff82111562000615576200061462000573565b5b602082029050919050565b600080fd5b600080fd5b600067ffffffffffffffff82111562000648576200064762000573565b5b620006538262000562565b9050602081019050919050565b60005b838110156200068057808201518184015260208101905062000663565b8381111562000690576000848401525b50505050565b6000620006ad620006a7846200062a565b620005d8565b905082815260208101848484011115620006cc57620006cb62000625565b5b620006d984828562000660565b509392505050565b600082601f830112620006f957620006f86200055d565b5b81516200070b84826020860162000696565b91505092915050565b60006200072b6200072584620005f7565b620005d8565b9050806020840283018581111562000748576200074762000620565b5b835b818110156200079657805167ffffffffffffffff8111156200077157620007706200055d565b5b808601620007808982620006e1565b855260208501945050506020810190506200074a565b5050509392505050565b600082601f830112620007b857620007b76200055d565b5b6003620007c784828562000714565b91505092915050565b6000819050919050565b620007e581620007d0565b8114620007f157600080fd5b50565b6000815190506200080581620007da565b92915050565b60008060008060008060c087890312156200082b576200082a6200042d565b5b60006200083b89828a0162000485565b96505060206200084e89828a01620004ca565b95505060406200086189828a0162000505565b94505060606200087489828a0162000546565b935050608087015167ffffffffffffffff81111562000898576200089762000432565b5b620008a689828a01620007a0565b92505060a0620008b989828a01620007f4565b9150509295509295509295565b7f4e487b7100000000000000000000000000000000000000000000000000000000600052602260045260246000fd5b600060028204905060018216806200090e57607f821691505b60208210811415620009255762000924620008c6565b5b50919050565b60805160601c60a05160601c60c05160c01c60e0516101005160e01c6101205161396d6200099560003960008181610d760152610f86015260006110600152600061101c0152600061103d01526000610fe001526000818161091d0152610971015261396d6000f3fe6080604052600436106101815760003560e01c806370a08231116100d1578063a36f573b1161008a578063b88d4fde11610064578063b88d4fde14610577578063c87b56dd146105a0578063e985e9c5146105dd578063f2fde38b1461061a57610181565b8063a36f573b146104df578063a51cccf31461051c578063aa1524911461055957610181565b806370a08231146103e1578063715018a61461041e5780637a5caab3146104355780638da5cb5b1461046057806395d89b411461048b578063a22cb465146104b657610181565b806323b872dd1161013e57806342842e0e1161011857806342842e0e146103255780635dacf5f41461034e5780636352211e146103795780636e02007d146103b657610181565b806323b872dd146102a85780633af25975146102d15780633ccfd60b1461030e57610181565b806301ffc9a71461018657806306fdde03146101c3578063081812fc146101ee578063095ea7b31461022b5780630b21a83b146102545780631fe543e31461027f575b600080fd5b34801561019257600080fd5b506101ad60048036038101906101a8919061251b565b610643565b6040516101ba9190612563565b60405180910390f35b3480156101cf57600080fd5b506101d8610725565b6040516101e59190612617565b60405180910390f35b3480156101fa57600080fd5b506102156004803603810190610210919061266f565b6107b7565b60405161022291906126dd565b60405180910390f35b34801561023757600080fd5b50610252600480360381019061024d9190612724565b6107fd565b005b34801561026057600080fd5b50610269610915565b6040516102769190612773565b60405180910390f35b34801561028b57600080fd5b506102a660048036038101906102a191906128d6565b61091b565b005b3480156102b457600080fd5b506102cf60048036038101906102ca9190612932565b6109db565b005b3480156102dd57600080fd5b506102f860048036038101906102f3919061266f565b610a3b565b6040516103059190612617565b60405180910390f35b34801561031a57600080fd5b50610323610aeb565b005b34801561033157600080fd5b5061034c60048036038101906103479190612932565b610b9f565b005b34801561035a57600080fd5b50610363610bbf565b6040516103709190612a30565b60405180910390f35b34801561038557600080fd5b506103a0600480360381019061039b919061266f565b610bea565b6040516103ad91906126dd565b60405180910390f35b3480156103c257600080fd5b506103cb610c9c565b6040516103d89190612773565b60405180910390f35b3480156103ed57600080fd5b5061040860048036038101906104039190612a4b565b610ca6565b6040516104159190612773565b60405180910390f35b34801561042a57600080fd5b50610433610d5e565b005b34801561044157600080fd5b5061044a610d72565b6040516104579190612773565b60405180910390f35b34801561046c57600080fd5b50610475610d9a565b60405161048291906126dd565b60405180910390f35b34801561049757600080fd5b506104a0610dc4565b6040516104ad9190612617565b60405180910390f35b3480156104c257600080fd5b506104dd60048036038101906104d89190612aa4565b610e56565b005b3480156104eb57600080fd5b506105066004803603810190610501919061266f565b610e6c565b60405161051391906126dd565b60405180910390f35b34801561052857600080fd5b50610543600480360381019061053e919061266f565b610e9f565b6040516105509190612b5b565b60405180910390f35b610561610f82565b60405161056e9190612773565b60405180910390f35b34801561058357600080fd5b5061059e60048036038101906105999190612c2b565b611182565b005b3480156105ac57600080fd5b506105c760048036038101906105c2919061266f565b6111e4565b6040516105d49190612617565b60405180910390f35b3480156105e957600080fd5b5061060460048036038101906105ff9190612cae565b6112f7565b6040516106119190612563565b60405180910390f35b34801561062657600080fd5b50610641600480360381019061063c9190612a4b565b61138b565b005b60007f80ac58cd000000000000000000000000000000000000000000000000000000007bffffffffffffffffffffffffffffffffffffffffffffffffffffffff1916827bffffffffffffffffffffffffffffffffffffffffffffffffffffffff1916148061070e57507f5b5e139f000000000000000000000000000000000000000000000000000000007bffffffffffffffffffffffffffffffffffffffffffffffffffffffff1916827bffffffffffffffffffffffffffffffffffffffffffffffffffffffff1916145b8061071e575061071d8261140f565b5b9050919050565b60606000805461073490612d1d565b80601f016020809104026020016040519081016040528092919081815260200182805461076090612d1d565b80156107ad5780601f10610782576101008083540402835291602001916107ad565b820191906000526020600020905b81548152906001019060200180831161079057829003601f168201915b5050505050905090565b60006107c282611479565b6004600083815260200190815260200160002060009054906101000a900473ffffffffffffffffffffffffffffffffffffffff169050919050565b600061080882610bea565b90508073ffffffffffffffffffffffffffffffffffffffff168373ffffffffffffffffffffffffffffffffffffffff161415610879576040517f08c379a000000000000000000000000000000000000000000000000000000000815260040161087090612dc1565b60405180910390fd5b8073ffffffffffffffffffffffffffffffffffffffff166108986114c4565b73ffffffffffffffffffffffffffffffffffffffff1614806108c757506108c6816108c16114c4565b6112f7565b5b610906576040517f08c379a00000000000000000000000000000000000000000000000000000000081526004016108fd90612e53565b60405180910390fd5b61091083836114cc565b505050565b60095481565b7f000000000000000000000000000000000000000000000000000000000000000073ffffffffffffffffffffffffffffffffffffffff163373ffffffffffffffffffffffffffffffffffffffff16146109cd57337f00000000000000000000000000000000000000000000000000000000000000006040517f1cf993f40000000000000000000000000000000000000000000000000000000081526004016109c4929190612e73565b60405180910390fd5b6109d78282611585565b5050565b6109ec6109e66114c4565b8261170a565b610a2b576040517f08c379a0000000000000000000000000000000000000000000000000000000008152600401610a2290612f0e565b60405180910390fd5b610a3683838361179f565b505050565b6060600a8281548110610a5157610a50612f2e565b5b906000526020600020018054610a6690612d1d565b80601f0160208091040260200160405190810160405280929190818152602001828054610a9290612d1d565b8015610adf5780601f10610ab457610100808354040283529160200191610adf565b820191906000526020600020905b815481529060010190602001808311610ac257829003601f168201915b50505050509050919050565b610af3611a06565b600047905060003373ffffffffffffffffffffffffffffffffffffffff1682604051610b1e90612f8e565b60006040518083038185875af1925050503d8060008114610b5b576040519150601f19603f3d011682016040523d82523d6000602084013e610b60565b606091505b5050905080610b9b576040517fca7e25b700000000000000000000000000000000000000000000000000000000815260040160405180910390fd5b5050565b610bba83838360405180602001604052806000815250611182565b505050565b610bc76123ea565b6040518060600160405280600a8152602001601e81526020016064815250905090565b6000806002600084815260200190815260200160002060009054906101000a900473ffffffffffffffffffffffffffffffffffffffff169050600073ffffffffffffffffffffffffffffffffffffffff168173ffffffffffffffffffffffffffffffffffffffff161415610c93576040517f08c379a0000000000000000000000000000000000000000000000000000000008152600401610c8a90612fef565b60405180910390fd5b80915050919050565b6000600954905090565b60008073ffffffffffffffffffffffffffffffffffffffff168273ffffffffffffffffffffffffffffffffffffffff161415610d17576040517f08c379a0000000000000000000000000000000000000000000000000000000008152600401610d0e90613081565b60405180910390fd5b600360008373ffffffffffffffffffffffffffffffffffffffff1673ffffffffffffffffffffffffffffffffffffffff168152602001908152602001600020549050919050565b610d66611a06565b610d706000611a84565b565b60007f0000000000000000000000000000000000000000000000000000000000000000905090565b6000600760009054906101000a900473ffffffffffffffffffffffffffffffffffffffff16905090565b606060018054610dd390612d1d565b80601f0160208091040260200160405190810160405280929190818152602001828054610dff90612d1d565b8015610e4c5780601f10610e2157610100808354040283529160200191610e4c565b820191906000526020600020905b815481529060010190602001808311610e2f57829003601f168201915b5050505050905090565b610e68610e616114c4565b8383611b4a565b5050565b60086020528060005260406000206000915054906101000a900473ffffffffffffffffffffffffffffffffffffffff1681565b600080600090506000610eb0610bbf565b905060005b6003811015610f4a57828510158015610ef05750818160038110610edc57610edb612f2e565b5b602002015183610eec91906130d0565b8511155b15610f1257806002811115610f0857610f07612ae4565b5b9350505050610f7d565b818160038110610f2557610f24612f2e565b5b602002015183610f3591906130d0565b92508080610f4290613126565b915050610eb5565b506040517f12806c9d00000000000000000000000000000000000000000000000000000000815260040160405180910390fd5b919050565b60007f0000000000000000000000000000000000000000000000000000000000000000341015610fde576040517fb90f491000000000000000000000000000000000000000000000000000000000815260040160405180910390fd5b7f000000000000000000000000000000000000000000000000000000000000000073ffffffffffffffffffffffffffffffffffffffff16635d3b1d307f00000000000000000000000000000000000000000000000000000000000000007f000000000000000000000000000000000000000000000000000000000000000060037f000000000000000000000000000000000000000000000000000000000000000060016040518663ffffffff1660e01b81526004016110a19594939291906131e7565b602060405180830381600087803b1580156110bb57600080fd5b505af11580156110cf573d6000803e3d6000fd5b505050506040513d601f19601f820116820180604052508101906110f3919061324f565b9050336008600083815260200190815260200160002060006101000a81548173ffffffffffffffffffffffffffffffffffffffff021916908373ffffffffffffffffffffffffffffffffffffffff160217905550807ff873236e6cc0ecc5be1a9a35c95ee5b8d1ac4cc7bfef0cc5060391d6cc98e26b3360405161117791906126dd565b60405180910390a290565b61119361118d6114c4565b8361170a565b6111d2576040517f08c379a00000000000000000000000000000000000000000000000000000000081526004016111c990612f0e565b60405180910390fd5b6111de84848484611cb7565b50505050565b60606111ef82611479565b600060066000848152602001908152602001600020805461120f90612d1d565b80601f016020809104026020016040519081016040528092919081815260200182805461123b90612d1d565b80156112885780601f1061125d57610100808354040283529160200191611288565b820191906000526020600020905b81548152906001019060200180831161126b57829003601f168201915b505050505090506000611299611d13565b90506000815114156112af5781925050506112f2565b6000825111156112e45780826040516020016112cc9291906132b8565b604051602081830303815290604052925050506112f2565b6112ed84611d2a565b925050505b919050565b6000600560008473ffffffffffffffffffffffffffffffffffffffff1673ffffffffffffffffffffffffffffffffffffffff16815260200190815260200160002060008373ffffffffffffffffffffffffffffffffffffffff1673ffffffffffffffffffffffffffffffffffffffff16815260200190815260200160002060009054906101000a900460ff16905092915050565b611393611a06565b600073ffffffffffffffffffffffffffffffffffffffff168173ffffffffffffffffffffffffffffffffffffffff161415611403576040517f08c379a00000000000000000000000000000000000000000000000000000000081526004016113fa9061334e565b60405180910390fd5b61140c81611a84565b50565b60007f01ffc9a7000000000000000000000000000000000000000000000000000000007bffffffffffffffffffffffffffffffffffffffffffffffffffffffff1916827bffffffffffffffffffffffffffffffffffffffffffffffffffffffff1916149050919050565b61148281611d92565b6114c1576040517f08c379a00000000000000000000000000000000000000000000000000000000081526004016114b890612fef565b60405180910390fd5b50565b600033905090565b816004600083815260200190815260200160002060006101000a81548173ffffffffffffffffffffffffffffffffffffffff021916908373ffffffffffffffffffffffffffffffffffffffff160217905550808273ffffffffffffffffffffffffffffffffffffffff1661153f83610bea565b73ffffffffffffffffffffffffffffffffffffffff167f8c5be1e5ebec7d5bd14f71427d1e84f3dd0314c0f7b2291e5b200ac8c7c3b92560405160405180910390a45050565b60006008600084815260200190815260200160002060009054906101000a900473ffffffffffffffffffffffffffffffffffffffff1690506000600954905060006064846000815181106115dc576115db612f2e565b5b60200260200101516115ee919061339d565b905060006115fb82610e9f565b90506116078484611dfe565b6116c983600a8360028111156116205761161f612ae4565b5b8154811061163157611630612f2e565b5b90600052602060002001805461164690612d1d565b80601f016020809104026020016040519081016040528092919081815260200182805461167290612d1d565b80156116bf5780601f10611694576101008083540402835291602001916116bf565b820191906000526020600020905b8154815290600101906020018083116116a257829003601f168201915b5050505050611e1c565b7f8a269f26b688e110e9cbd887d163dab35cae678fa353a0292de532c0cac1ecdc81856040516116fa9291906133ce565b60405180910390a1505050505050565b60008061171683610bea565b90508073ffffffffffffffffffffffffffffffffffffffff168473ffffffffffffffffffffffffffffffffffffffff161480611758575061175781856112f7565b5b8061179657508373ffffffffffffffffffffffffffffffffffffffff1661177e846107b7565b73ffffffffffffffffffffffffffffffffffffffff16145b91505092915050565b8273ffffffffffffffffffffffffffffffffffffffff166117bf82610bea565b73ffffffffffffffffffffffffffffffffffffffff1614611815576040517f08c379a000000000000000000000000000000000000000000000000000000000815260040161180c90613469565b60405180910390fd5b600073ffffffffffffffffffffffffffffffffffffffff168273ffffffffffffffffffffffffffffffffffffffff161415611885576040517f08c379a000000000000000000000000000000000000000000000000000000000815260040161187c906134fb565b60405180910390fd5b611890838383611e90565b61189b6000826114cc565b6001600360008573ffffffffffffffffffffffffffffffffffffffff1673ffffffffffffffffffffffffffffffffffffffff16815260200190815260200160002060008282546118eb919061351b565b925050819055506001600360008473ffffffffffffffffffffffffffffffffffffffff1673ffffffffffffffffffffffffffffffffffffffff168152602001908152602001600020600082825461194291906130d0565b92505081905550816002600083815260200190815260200160002060006101000a81548173ffffffffffffffffffffffffffffffffffffffff021916908373ffffffffffffffffffffffffffffffffffffffff160217905550808273ffffffffffffffffffffffffffffffffffffffff168473ffffffffffffffffffffffffffffffffffffffff167fddf252ad1be2c89b69c2b068fc378daa952ba7f163c4a11628f55a4df523b3ef60405160405180910390a4611a01838383611e95565b505050565b611a0e6114c4565b73ffffffffffffffffffffffffffffffffffffffff16611a2c610d9a565b73ffffffffffffffffffffffffffffffffffffffff1614611a82576040517f08c379a0000000000000000000000000000000000000000000000000000000008152600401611a799061359b565b60405180910390fd5b565b6000600760009054906101000a900473ffffffffffffffffffffffffffffffffffffffff16905081600760006101000a81548173ffffffffffffffffffffffffffffffffffffffff021916908373ffffffffffffffffffffffffffffffffffffffff1602179055508173ffffffffffffffffffffffffffffffffffffffff168173ffffffffffffffffffffffffffffffffffffffff167f8be0079c531659141344cd1fd0a4f28419497f9722a3daafe3b4186f6b6457e060405160405180910390a35050565b8173ffffffffffffffffffffffffffffffffffffffff168373ffffffffffffffffffffffffffffffffffffffff161415611bb9576040517f08c379a0000000000000000000000000000000000000000000000000000000008152600401611bb090613607565b60405180910390fd5b80600560008573ffffffffffffffffffffffffffffffffffffffff1673ffffffffffffffffffffffffffffffffffffffff16815260200190815260200160002060008473ffffffffffffffffffffffffffffffffffffffff1673ffffffffffffffffffffffffffffffffffffffff16815260200190815260200160002060006101000a81548160ff0219169083151502179055508173ffffffffffffffffffffffffffffffffffffffff168373ffffffffffffffffffffffffffffffffffffffff167f17307eab39ab6107e8899845ad3d59bd9653f200f220920489ca2b5937696c3183604051611caa9190612563565b60405180910390a3505050565b611cc284848461179f565b611cce84848484611e9a565b611d0d576040517f08c379a0000000000000000000000000000000000000000000000000000000008152600401611d0490613699565b60405180910390fd5b50505050565b606060405180602001604052806000815250905090565b6060611d3582611479565b6000611d3f611d13565b90506000815111611d5f5760405180602001604052806000815250611d8a565b80611d6984612031565b604051602001611d7a9291906132b8565b6040516020818303038152906040525b915050919050565b60008073ffffffffffffffffffffffffffffffffffffffff166002600084815260200190815260200160002060009054906101000a900473ffffffffffffffffffffffffffffffffffffffff1673ffffffffffffffffffffffffffffffffffffffff1614159050919050565b611e18828260405180602001604052806000815250612192565b5050565b611e2582611d92565b611e64576040517f08c379a0000000000000000000000000000000000000000000000000000000008152600401611e5b9061372b565b60405180910390fd5b80600660008481526020019081526020016000209080519060200190611e8b92919061240c565b505050565b505050565b505050565b6000611ebb8473ffffffffffffffffffffffffffffffffffffffff166121ed565b15612024578373ffffffffffffffffffffffffffffffffffffffff1663150b7a02611ee46114c4565b8786866040518563ffffffff1660e01b8152600401611f0694939291906137a0565b602060405180830381600087803b158015611f2057600080fd5b505af1925050508015611f5157506040513d601f19601f82011682018060405250810190611f4e9190613801565b60015b611fd4573d8060008114611f81576040519150601f19603f3d011682016040523d82523d6000602084013e611f86565b606091505b50600081511415611fcc576040517f08c379a0000000000000000000000000000000000000000000000000000000008152600401611fc390613699565b60405180910390fd5b805181602001fd5b63150b7a0260e01b7bffffffffffffffffffffffffffffffffffffffffffffffffffffffff1916817bffffffffffffffffffffffffffffffffffffffffffffffffffffffff191614915050612029565b600190505b949350505050565b60606000821415612079576040518060400160405280600181526020017f3000000000000000000000000000000000000000000000000000000000000000815250905061218d565b600082905060005b600082146120ab57808061209490613126565b915050600a826120a4919061382e565b9150612081565b60008167ffffffffffffffff8111156120c7576120c6612793565b5b6040519080825280601f01601f1916602001820160405280156120f95781602001600182028036833780820191505090505b5090505b6000851461218657600182612112919061351b565b9150600a85612121919061339d565b603061212d91906130d0565b60f81b81838151811061214357612142612f2e565b5b60200101907effffffffffffffffffffffffffffffffffffffffffffffffffffffffffffff1916908160001a905350600a8561217f919061382e565b94506120fd565b8093505050505b919050565b61219c8383612210565b6121a96000848484611e9a565b6121e8576040517f08c379a00000000000000000000000000000000000000000000000000000000081526004016121df90613699565b60405180910390fd5b505050565b6000808273ffffffffffffffffffffffffffffffffffffffff163b119050919050565b600073ffffffffffffffffffffffffffffffffffffffff168273ffffffffffffffffffffffffffffffffffffffff161415612280576040517f08c379a0000000000000000000000000000000000000000000000000000000008152600401612277906138ab565b60405180910390fd5b61228981611d92565b156122c9576040517f08c379a00000000000000000000000000000000000000000000000000000000081526004016122c090613917565b60405180910390fd5b6122d560008383611e90565b6001600360008473ffffffffffffffffffffffffffffffffffffffff1673ffffffffffffffffffffffffffffffffffffffff168152602001908152602001600020600082825461232591906130d0565b92505081905550816002600083815260200190815260200160002060006101000a81548173ffffffffffffffffffffffffffffffffffffffff021916908373ffffffffffffffffffffffffffffffffffffffff160217905550808273ffffffffffffffffffffffffffffffffffffffff16600073ffffffffffffffffffffffffffffffffffffffff167fddf252ad1be2c89b69c2b068fc378daa952ba7f163c4a11628f55a4df523b3ef60405160405180910390a46123e660008383611e95565b5050565b6040518060600160405280600390602082028036833780820191505090505090565b82805461241890612d1d565b90600052602060002090601f01602090048101928261243a5760008555612481565b82601f1061245357805160ff1916838001178555612481565b82800160010185558215612481579182015b82811115612480578251825591602001919060010190612465565b5b50905061248e9190612492565b5090565b5b808211156124ab576000816000905550600101612493565b5090565b6000604051905090565b600080fd5b600080fd5b60007fffffffff0000000000000000000000000000000000000000000000000000000082169050919050565b6124f8816124c3565b811461250357600080fd5b50565b600081359050612515816124ef565b92915050565b600060208284031215612531576125306124b9565b5b600061253f84828501612506565b91505092915050565b60008115159050919050565b61255d81612548565b82525050565b60006020820190506125786000830184612554565b92915050565b600081519050919050565b600082825260208201905092915050565b60005b838110156125b857808201518184015260208101905061259d565b838111156125c7576000848401525b50505050565b6000601f19601f8301169050919050565b60006125e98261257e565b6125f38185612589565b935061260381856020860161259a565b61260c816125cd565b840191505092915050565b6000602082019050818103600083015261263181846125de565b905092915050565b6000819050919050565b61264c81612639565b811461265757600080fd5b50565b60008135905061266981612643565b92915050565b600060208284031215612685576126846124b9565b5b60006126938482850161265a565b91505092915050565b600073ffffffffffffffffffffffffffffffffffffffff82169050919050565b60006126c78261269c565b9050919050565b6126d7816126bc565b82525050565b60006020820190506126f260008301846126ce565b92915050565b612701816126bc565b811461270c57600080fd5b50565b60008135905061271e816126f8565b92915050565b6000806040838503121561273b5761273a6124b9565b5b60006127498582860161270f565b925050602061275a8582860161265a565b9150509250929050565b61276d81612639565b82525050565b60006020820190506127886000830184612764565b92915050565b600080fd5b7f4e487b7100000000000000000000000000000000000000000000000000000000600052604160045260246000fd5b6127cb826125cd565b810181811067ffffffffffffffff821117156127ea576127e9612793565b5b80604052505050565b60006127fd6124af565b905061280982826127c2565b919050565b600067ffffffffffffffff82111561282957612828612793565b5b602082029050602081019050919050565b600080fd5b600061285261284d8461280e565b6127f3565b905080838252602082019050602084028301858111156128755761287461283a565b5b835b8181101561289e578061288a888261265a565b845260208401935050602081019050612877565b5050509392505050565b600082601f8301126128bd576128bc61278e565b5b81356128cd84826020860161283f565b91505092915050565b600080604083850312156128ed576128ec6124b9565b5b60006128fb8582860161265a565b925050602083013567ffffffffffffffff81111561291c5761291b6124be565b5b612928858286016128a8565b9150509250929050565b60008060006060848603121561294b5761294a6124b9565b5b60006129598682870161270f565b935050602061296a8682870161270f565b925050604061297b8682870161265a565b9150509250925092565b600060039050919050565b600081905092915050565b6000819050919050565b6129ae81612639565b82525050565b60006129c083836129a5565b60208301905092915050565b6000602082019050919050565b6129e281612985565b6129ec8184612990565b92506129f78261299b565b8060005b83811015612a28578151612a0f87826129b4565b9650612a1a836129cc565b9250506001810190506129fb565b505050505050565b6000606082019050612a4560008301846129d9565b92915050565b600060208284031215612a6157612a606124b9565b5b6000612a6f8482850161270f565b91505092915050565b612a8181612548565b8114612a8c57600080fd5b50565b600081359050612a9e81612a78565b92915050565b60008060408385031215612abb57612aba6124b9565b5b6000612ac98582860161270f565b9250506020612ada85828601612a8f565b9150509250929050565b7f4e487b7100000000000000000000000000000000000000000000000000000000600052602160045260246000fd5b60038110612b2457612b23612ae4565b5b50565b6000819050612b3582612b13565b919050565b6000612b4582612b27565b9050919050565b612b5581612b3a565b82525050565b6000602082019050612b706000830184612b4c565b92915050565b600080fd5b600067ffffffffffffffff821115612b9657612b95612793565b5b612b9f826125cd565b9050602081019050919050565b82818337600083830152505050565b6000612bce612bc984612b7b565b6127f3565b905082815260208101848484011115612bea57612be9612b76565b5b612bf5848285612bac565b509392505050565b600082601f830112612c1257612c1161278e565b5b8135612c22848260208601612bbb565b91505092915050565b60008060008060808587031215612c4557612c446124b9565b5b6000612c538782880161270f565b9450506020612c648782880161270f565b9350506040612c758782880161265a565b925050606085013567ffffffffffffffff811115612c9657612c956124be565b5b612ca287828801612bfd565b91505092959194509250565b60008060408385031215612cc557612cc46124b9565b5b6000612cd38582860161270f565b9250506020612ce48582860161270f565b9150509250929050565b7f4e487b7100000000000000000000000000000000000000000000000000000000600052602260045260246000fd5b60006002820490506001821680612d3557607f821691505b60208210811415612d4957612d48612cee565b5b50919050565b7f4552433732313a20617070726f76616c20746f2063757272656e74206f776e6560008201527f7200000000000000000000000000000000000000000000000000000000000000602082015250565b6000612dab602183612589565b9150612db682612d4f565b604082019050919050565b60006020820190508181036000830152612dda81612d9e565b9050919050565b7f4552433732313a20617070726f76652063616c6c6572206973206e6f7420746f60008201527f6b656e206f776e6572206e6f7220617070726f76656420666f7220616c6c0000602082015250565b6000612e3d603e83612589565b9150612e4882612de1565b604082019050919050565b60006020820190508181036000830152612e6c81612e30565b9050919050565b6000604082019050612e8860008301856126ce565b612e9560208301846126ce565b9392505050565b7f4552433732313a2063616c6c6572206973206e6f7420746f6b656e206f776e6560008201527f72206e6f7220617070726f766564000000000000000000000000000000000000602082015250565b6000612ef8602e83612589565b9150612f0382612e9c565b604082019050919050565b60006020820190508181036000830152612f2781612eeb565b9050919050565b7f4e487b7100000000000000000000000000000000000000000000000000000000600052603260045260246000fd5b600081905092915050565b50565b6000612f78600083612f5d565b9150612f8382612f68565b600082019050919050565b6000612f9982612f6b565b9150819050919050565b7f4552433732313a20696e76616c696420746f6b656e2049440000000000000000600082015250565b6000612fd9601883612589565b9150612fe482612fa3565b602082019050919050565b6000602082019050818103600083015261300881612fcc565b9050919050565b7f4552433732313a2061646472657373207a65726f206973206e6f74206120766160008201527f6c6964206f776e65720000000000000000000000000000000000000000000000602082015250565b600061306b602983612589565b91506130768261300f565b604082019050919050565b6000602082019050818103600083015261309a8161305e565b9050919050565b7f4e487b7100000000000000000000000000000000000000000000000000000000600052601160045260246000fd5b60006130db82612639565b91506130e683612639565b9250827fffffffffffffffffffffffffffffffffffffffffffffffffffffffffffffffff0382111561311b5761311a6130a1565b5b828201905092915050565b600061313182612639565b91507fffffffffffffffffffffffffffffffffffffffffffffffffffffffffffffffff821415613164576131636130a1565b5b600182019050919050565b6000819050919050565b6131828161316f565b82525050565b600067ffffffffffffffff82169050919050565b6131a581613188565b82525050565b600061ffff82169050919050565b6131c2816131ab565b82525050565b600063ffffffff82169050919050565b6131e1816131c8565b82525050565b600060a0820190506131fc6000830188613179565b613209602083018761319c565b61321660408301866131b9565b61322360608301856131d8565b61323060808301846131d8565b9695505050505050565b60008151905061324981612643565b92915050565b600060208284031215613265576132646124b9565b5b60006132738482850161323a565b91505092915050565b600081905092915050565b60006132928261257e565b61329c818561327c565b93506132ac81856020860161259a565b80840191505092915050565b60006132c48285613287565b91506132d08284613287565b91508190509392505050565b7f4f776e61626c653a206e6577206f776e657220697320746865207a65726f206160008201527f6464726573730000000000000000000000000000000000000000000000000000602082015250565b6000613338602683612589565b9150613343826132dc565b604082019050919050565b600060208201905081810360008301526133678161332b565b9050919050565b7f4e487b7100000000000000000000000000000000000000000000000000000000600052601260045260246000fd5b60006133a882612639565b91506133b383612639565b9250826133c3576133c261336e565b5b828206905092915050565b60006040820190506133e36000830185612b4c565b6133f060208301846126ce565b9392505050565b7f4552433732313a207472616e736665722066726f6d20696e636f72726563742060008201527f6f776e6572000000000000000000000000000000000000000000000000000000602082015250565b6000613453602583612589565b915061345e826133f7565b604082019050919050565b6000602082019050818103600083015261348281613446565b9050919050565b7f4552433732313a207472616e7366657220746f20746865207a65726f2061646460008201527f7265737300000000000000000000000000000000000000000000000000000000602082015250565b60006134e5602483612589565b91506134f082613489565b604082019050919050565b60006020820190508181036000830152613514816134d8565b9050919050565b600061352682612639565b915061353183612639565b925082821015613544576135436130a1565b5b828203905092915050565b7f4f776e61626c653a2063616c6c6572206973206e6f7420746865206f776e6572600082015250565b6000613585602083612589565b91506135908261354f565b602082019050919050565b600060208201905081810360008301526135b481613578565b9050919050565b7f4552433732313a20617070726f766520746f2063616c6c657200000000000000600082015250565b60006135f1601983612589565b91506135fc826135bb565b602082019050919050565b60006020820190508181036000830152613620816135e4565b9050919050565b7f4552433732313a207472616e7366657220746f206e6f6e20455243373231526560008201527f63656976657220696d706c656d656e7465720000000000000000000000000000602082015250565b6000613683603283612589565b915061368e82613627565b604082019050919050565b600060208201905081810360008301526136b281613676565b9050919050565b7f45524337323155524953746f726167653a2055524920736574206f66206e6f6e60008201527f6578697374656e7420746f6b656e000000000000000000000000000000000000602082015250565b6000613715602e83612589565b9150613720826136b9565b604082019050919050565b6000602082019050818103600083015261374481613708565b9050919050565b600081519050919050565b600082825260208201905092915050565b60006137728261374b565b61377c8185613756565b935061378c81856020860161259a565b613795816125cd565b840191505092915050565b60006080820190506137b560008301876126ce565b6137c260208301866126ce565b6137cf6040830185612764565b81810360608301526137e18184613767565b905095945050505050565b6000815190506137fb816124ef565b92915050565b600060208284031215613817576138166124b9565b5b6000613825848285016137ec565b91505092915050565b600061383982612639565b915061384483612639565b9250826138545761385361336e565b5b828204905092915050565b7f4552433732313a206d696e7420746f20746865207a65726f2061646472657373600082015250565b6000613895602083612589565b91506138a08261385f565b602082019050919050565b600060208201905081810360008301526138c481613888565b9050919050565b7f4552433732313a20746f6b656e20616c7265616479206d696e74656400000000600082015250565b6000613901601c83612589565b915061390c826138cb565b602082019050919050565b60006020820190508181036000830152613930816138f4565b905091905056fea264697066735822122069b66dfde8b33a3d6ff2a04f82f8af5b10631975a381caf4f9b64c13a7565f1c64736f6c63430008080033",
  "linkReferences": {},
  "deployedLinkReferences": {}
}